:020000040000FA
:0408000010EF04F001
:020804000000F2
:040808008BEF04F07E
:040818008DEF04F06C
:10082000806AFF0E926E0F0EC16E070EB46E816A63
:10083000000E936E826A000E946E6D966F86216A2A
:10084000000E216E80B022EF04F0000080B62FEF82
:1008500004F0000080BA44EF04F04BEF04F080BADB
:1008600034EF04F03BEF04F02150E836816E52EC97
:1008700004F022EF04F02150E832816E52EC04F0D3
:1008800080BEE86A22EF04F0212A2150816E52ECEA
:1008900004F022EF04F021062150816E52EC04F0A6
:1008A00022EF04F067EC04F067EC04F067EC04F06E
:1008B00067EC04F067EC04F067EC04F067EC04F01C
:1008C00067EC04F067EC04F067EC04F012007CECD9
:1008D00004F07CEC04F07CEC04F07CEC04F07CECA8
:1008E00004F07CEC04F07CEC04F07CEC04F07CEC98
:1008F00004F07CEC04F01200FF0E00000000000089
:100900000000000000000000000000000000E82ED1
:0E0910007DEF04F01200000010000000100047
:00000001FF
