:020000040000FA
:0400000010EF00F00D
:020004000000FA
:0400080045EF00F0D0
:0400180051EF00F0B4
:10002000806A3F0E926E816A000E936E826A000EA5
:10003000946E000EC16E070EB46E6D966F86D56A13
:10004000CD6AF28EF28CF28A9D80A082D58ECD8010
:10005000B190D582D580CD9ACD88D06A150E236E09
:10006000A00E246EE86A25B038EC00F03CEF00F0FA
:10007000070EE8CF21F0120021A033EF00F021A2FB
:1000800044EF00F044EF00F02592256AF2B4258099
:100090009EB0258223C0CFFF24C0CEFFF2949E9055
:0600A0001000000010003A
:00000001FF
