:020000040000FA
:0408000010EF04F001
:020804000000F2
:04080800D9EF04F030
:04081800E5EF04F014
:10082000806A3F0E926E816A000E936E826A000E9D
:10083000946E000EC16E070EB46E6D966F86D56A0B
:10084000CD6AF28EF28CF28A9D80A082D58ECD8008
:10085000B190D582D580CD9ACD88D06A150E246E00
:10086000A00E256E000E276E020E286E030E296E56
:10087000010E306EE86A226A236A316AFF0EE8CF01
:1008800021F026B049EC04F026B256EC04F090EFCB
:1008900004F0216A80B0218080B2218280B421845A
:1008A00080B621862690E8CF21F0120022C023F0E6
:1008B00020B666EF04F020B47BEF04F020B290EF96
:1008C00004F020B090EF04F0816A120029C0E8FF24
:1008D000236028C081FF28C0E8FF236027C081FF74
:1008E00030C0E8FF236029C081FF27C0E8FF2360F4
:1008F00030C081FF120029C0E8FF236030C081FFB3
:1009000028C0E8FF236029C081FF30C0E8FF2360D2
:1009100027C081FF27C0E8FF236028C081FF1200A5
:1009200096EF04F0000E206E90EF04F021A29BEFF2
:1009300004F0BAEF04F021A041EF04F021B2BAEFC5
:1009400004F031A4B0EC04F021B41200010E206ECA
:1009500031A6B5EC04F021B61200020E206E120092
:1009600021A41200010E206E120021A61200020E18
:10097000206E120021A041EF04F021A29BEF04F0B1
:1009800031A4CFEC04F021B41200040E206E31A685
:10099000D4EC04F021B61200080E206E120021A43F
:1009A0001200010E206E120021A61200080E206E09
:1009B0001200266AF2B426809EB0268224C0CFFFA1
:0E09C00025C0CEFFF2949E90100000001000A3
:00000001FF
