:04000000B1EF3FF02D
:107F62000001C4EF3FF0000E806E92680F0EC16EEA
:107F7200070EB46E000E816E000E936E000E826EBE
:107F8200000E946E1200000E026E000E016E000EC4
:107F9200046E000E036E000E096EB4EC3FF080A07A
:107FA20007D00928D8B402D0092806D0000E04D080
:107FB2000950D8B403D00904096E01D0096809C078
:107FC20081FF000E066E000E056E0650800A800FBD
:107FD200FF0ED8B4055CD8B0E2D7000E086E000ED2
:107FE200076E0850800A800FFF0ED8B4075CD8B025
:0E7FF20003D0074A082AF5D7054A062AE6D723
:020000040020DA
:08000000FFFFFFFFFFFFFFFF00
:020000040030CA
:0E00000000051F1FFF8385FF0FC00FE00F409C
:00000001FF
