:020000040000FA
:040800000CEF04F005
:10080800FACF01F0FBCF02F0E9CF03F00EED04F0D0
:1008180062EF04F00600EACF04F0E1CF05F0E2CF82
:1008280006F0D9CF07F0DACF08F0F3CF09F0F4CF0C
:100838000AF0F6CF0BF0F7CF0CF0F8CF0DF0F5CFAC
:100848000EF09EAC04D0C4CF81FFC2829E9C0EC025
:10085800F5FF0DC0F8FF0CC0F7FF0BC0F6FF0AC08C
:10086800F4FF09C0F3FF08C0DAFF07C0D9FF06C0CC
:10087800E2FF05C0E1FF04C0EAFF03C0E9FF02C0D0
:10088800FBFF01C0FAFF1100F29E000E806E926815
:10089800000E816E000E936E000E826E000E946E36
:1008A800010EC26E0E0EC16E3D0EC06E070EB46E06
:1008B8009E9C9D8CF28EF28CC2821200000165EF24
:0808C80004F048EC04F0FFD736
:00000001FF
