:0400000078EF3DF068
:107AF0001E6A1D6A1C6A1B6A000EF86E0001E3EF25
:107B00003DF0000E806E92680F0EC16E070EB46ECF
:107B1000000E816E000E936E000E826E000E946E4B
:107B20001200000E066E0450800AF36E800EF35CA5
:107B3000000ED8B4035CD8B006D0036C041ED8B0D5
:107B4000042A010E066E0250800AF36E800EF35C6A
:107B5000000ED8B4015CD8B006D0016C021ED8B0BB
:107B6000022A010E061A000E086E000E076E04505F
:107B70000310D8B41CD0010E056E04D0D890033683
:107B80000436052A04AEFAD7D890073608360350D3
:107B9000015C04500258D8A005D00350015E045087
:107BA000025A0780D89004320332052EEDD70650D2
:107BB000D8B404D0076C081ED8B0082A07C001F05A
:107BC00008C002F0120081EC3DF015D180B042D027
:107BD000000E186E000E176E000E0E6E000E0D6E6B
:107BE000000E106E000E0F6E000E186E000E176E57
:107BF0001850800A7E0F000ED8B4175CD8B02AD077
:107C0000FF0E1724F66E7D0E1820F76E0800F5CFD4
:107C100081FF000E0E6E000E0D6E0E50800A800F5A
:107C2000FF0ED8B40D5CD8B012D0000E106E000E4E
:107C30000F6E1050800A800FFF0ED8B40F5CD8B0C2
:107C400003D00F4A102AF5D70D4A0E2AE6D7174A55
:107C5000182ACED780A0CFD0000E0C6E000E0B6E6F
:107C6000000E1A6E000E196E000E126E000E116ECE
:107C7000000E146E000E136E000E1A6E000E196EBA
:107C80001A50800A7E0F000ED8B4195CD8B0B3D059
:107C9000000E166E000E156E1650800A800F080E2C
:107CA000D8B4155CD8B018D015C009F016C00AF0C9
:107CB000195009261A500A22FF0E0924F66E7D0E6D
:107CC0000A20F76E0800F5501D241D6E000E1E20C0
:107CD0001E6E154A162AE0D71DC001F01EC002F024
:107CE000000E046E080E036E91EC3DF001C01BF017
:107CF00002C01CF01C50800A800FF00ED8B41B5C30
:107D0000D8A002D0816852D01C50800A800FD00EBB
:107D1000D8B41B5CD8A002D07F0E47D01C50800A7C
:107D2000800FB00ED8B41B5CD8A002D03F0E3DD05F
:107D30001C50800A800F900ED8B41B5CD8A002D0D3
:107D40001F0E33D01C50800A800F700ED8B41B5CFD
:107D5000D8A002D00F0E29D01C50800A800F500EE0
:107D6000D8B41B5CD8A002D0070E1FD01C50800ACC
:107D7000800F300ED8B41B5CD8A002D0030E15D0F3
:107D80001C50800A800F100ED8B41B5CD8A002D003
:107D9000010E0BD01C50800AF36E800EF35C100EA7
:107DA000D8B41B5CD8B002D0000E816E000E1E6EDF
:107DB000000E1D6E000E126E000E116E1250800A23
:107DC000800FFF0ED8B4115CD8B012D0000E146E24
:107DD000000E136E1450800A800FFF0ED8B4135C8F
:107DE000D8B003D0134A142AF5D7114A122AE6D77D
:107DF000194A1A2A45D780A2E9D600EF00F00008F8
:107E000000152400063800004930001715350D080C
:107E10000024402B4D4E105300002419004D3F000C
:107E20001D004B002400130A650000663E106068C8
:107E30005E301947691656011C001C06072D2924BF
:107E4000042A0E056C2672325D774F518C38291B3F
:107E500029357A67364151676150791F66748451BC
:107E60009E403C819141962C906D52A666AD6783F1
:107E7000749699AFAC5B639D4AB48B96578FAF54A1
:107E8000B97B7AA573B49A93C6BF88869E76636DD4
:107E9000A4CBA5B18A85616E85D9C2C27A93CACFB7
:107EA000A188C6A871A06B77D99EB685B673EBD7AB
:107EB000EF97C7F0EDE2C5E0B9DE87CC9FBE85CA7B
:107EC000FF9DB691F5ECB19DFBD6FFAD91AFC3938D
:107ED0009AD1FFC1B3F3AEB2F0AFB7FFB5BAA9B153
:107EE000A7FCFFF7DCBCF1FFE9FFDCFFFFE5DEFFED
:107EF000FFFBC7FFFFFFFFFFD5D8ECF1BDFFFFD7AA
:107F0000D7EFFFC2BDCEFFFBD6FFFFFFD1C0D2FF30
:107F1000FFFFB6E8FDCDBEFFC8EDB8FFFFE6FFE00E
:107F2000C4D1D7F2E7B6ED9EE6F1DEB6F3A2C4E126
:107F3000A5E1A1E6B9BAFFC8CFF3D3CBECCCC9D346
:107F4000AF9189F8858EBDD0E294D2A2BCAFB07D4E
:107F5000C3B999BE868D91AE89D56CDFD3DFB6D11A
:107F60009B6867D385A093889891C5987954A56438
:107F70008554A0B7A660699CB8BF894F4C956D69C0
:107F800053A46AA03D93A4467E4789418B636C7ECF
:107F9000973589AB3E2F7476A5555A728E697B9AB8
:107FA0003B764A94378592914E907D646938342AA5
:107FB0007E8186840D701312202C6B0840180427D4
:107FC00000346A2820690F56037533004919514A55
:107FD00063006D3E541359345E5A5B2D37454F4E46
:107FE0004F0003000039003B2420000500003A0048
:107FF0001A43000024003D003300050000031A006E
:020000040020DA
:08000000FFFFFFFFFFFFFFFF00
:020000040030CA
:0E00000000051F1FFF8385FF0FC00FE00F409C
:00000001FF
