:020000040000FA
:0408000010EF04F001
:020804000000F2
:0408080093EF04F076
:0408180095EF04F064
:10082000806AFF0E926E816A010E936E826A000EDC
:10083000946E0F0EC16E070EB46E020ECA6EFF0EDE
:10084000CB6ECA84C76AC66A230EC66E6D966F8663
:1008500080B028EF04F0000080BA31EF04F03AEFE6
:1008600004F0212A2150C96E86EC04F043EC04F018
:1008700028EF04F021062150C96E86EC04F043EC09
:1008800004F028EF04F058EC04F058EC04F058ECB5
:1008900004F058EC04F058EC04F058EC04F058EC78
:1008A00004F058EC04F058EC04F058EC04F012009A
:1008B0006DEC04F06DEC04F06DEC04F06DEC04F004
:1008C0006DEC04F06DEC04F06DEC04F06DEC04F0F4
:1008D0006DEC04F06DEC04F01200FF0E000000005F
:1008E0000000000000000000000000000000000008
:1008F00000000000000000000000000000000000F8
:1009000000000000E82E6EEF04F01200C750E8A0CF
:1009100086EF04F0816A000E936EC9CF81FF816A71
:0E092000010E936E1200000010000000100087
:00000001FF
